:020000040800F2
:10000000600600200D020008490200084B020008AB
:100010004D0200084F0200085102000800000000D5
:100020000000000000000000000000005302000873
:10003000550200080000000057020008590200089D
:100040005B0200085B0200085B0200085B0200081C
:100050005B0200085B0200085B0200085B0200080C
:100060005B0200085B0200085B0200085B020008FC
:100070005B0200085B0200085B0200085B020008EC
:100080005B0200085B0200085B0200085B020008DC
:100090005B0200085B0200085B0200085B020008CC
:1000A0005B0200085B0200085B0200085B020008BC
:1000B0005B0200085B0200085B0200085B020008AC
:1000C0005B0200085B0200085B0200085B0200089C
:1000D0005B0200085B0200085B0200085B0200088C
:1000E0005B0200085B0200085B0200085B0200087C
:1000F0005B0200085B0200085B0200085B0200086C
:100100005B0200085B0200085B0200085B0200085B
:100110005B0200085B0200085B0200085B0200084B
:100120005B0200085B0200085B0200085B0200083B
:100130005B0200085B0200085B0200085B0200082B
:100140005B0200085B0200085B0200085B0200081B
:100150005B0200085B0200085B0200085B0200080B
:100160005B0200085B0200085B0200085B020008FB
:100170005B0200085B0200085B0200080000000050
:100180005B0200085B02000800F002F800F02EF8A5
:100190000AA090E8000C82448344AAF10107DA45E2
:1001A00001D100F023F8AFF2090EBAE80F0013F006
:1001B000010F18BFFB1A43F0010318476406000043
:1001C000740600000023002400250026103A28BFF2
:1001D00078C1FBD8520728BF30C148BF0B607047B9
:1001E0001FB500F017FB1FBD10B510BD00F059F88A
:1001F0001146FFF7F5FF00F085FA00F077F803B439
:10020000FFF7F2FF03BC00F07BF800001648174927
:10021000174B99423CBF50F8042B41F8042BF8D3FC
:1002200014494FF000028B4238BF43F8042BFAD335
:10023000DFF84400016841F470010160BFF34F8FA3
:10024000BFF36F8F0D480047FEE7FEE7FEE7FEE7CE
:10025000FEE7FEE7FEE7FEE7FEE7FEE7084809499E
:10026000094A0A4B704700003008000800000020CF
:10027000000000206006002088ED00E089010008F1
:100280006000002060060020600200206002002064
:10029000704770477047000000487047000000201A
:1002A00070477546FFF7F8FFAE46050069465346AE
:1002B00020F00700854618B020B5FFF7CFFFBDE856
:1002C00020404FF000064FF000074FF000084FF0BD
:1002D000000B21F00701AC46ACE8C009ACE8C0094E
:1002E000ACE8C009ACE8C0098D46704710B50446BB
:1002F000AFF300802046BDE81040FFF780BF00004C
:1003000001491820ABBEFEE7260002002348C06C5E
:1003100040F012002149C8646FF0300020490860A5
:100320000846006840F0100008601D48083000686A
:1003300020F030001A49083108600846006840F093
:1003400030000860081F006820F00400091F0860E2
:1003500013480C30006820F0300011490C3108605F
:100360006FF440300F4908600846006840F4803060
:1003700008600846806820F440308860084680683D
:1003800040F4403088600846406820F4807048603F
:100390000846C06820F44030C86070470010024032
:1003A00000040048001000485E49096821F0070178
:1003B0005C4A11601146096841F0020111605A4916
:1003C000096841F48071584A116000BF56490968B4
:1003D00001F480610029F9D010205349496821F0C7
:1003E000F851514A51601146496841EA0061516033
:1003F0001146096821F08071116000BF4A490968FF
:1004000001F00071B1F1007FF8D04749C96821F0CF
:100410000301454AD1601146C96841F00201D1602B
:100420001146C96821F4FE4141F4A051D160114642
:10043000C96821F0700141F01001D1601146C9680E
:1004400021F0C061D1601146C96841F08071D1606E
:100450001146096841F08071116000BF3249096896
:1004600001F000710029F9D02F49896821F00301BA
:100470002D4A91601146896841F00301916000BFE7
:100480002949896801F00C010C29F9D126498968AC
:1004900021F0F001244A91601146896821F4E0615D
:1004A00091601146896821F4605191601146096894
:1004B00021F08061116000BF1B49096801F0806173
:1004C000B1F1806FF8D01849096921F4FE41164A4C
:1004D00011611146096941F4C05111611146096960
:1004E00041F4003111611146096941F48031116113
:1004F0001146096841F08061116000BF0A4909682E
:1005000001F080610029F9D007498831096821F498
:100510004001054AC2F888101146096E41F40011E5
:100520001166704700200240001002401A48C06C5B
:1005300040F008001849C8641848006820F470505A
:10054000164908600846006840F4205008601348C7
:100550002030006840F0EE601049203108600F48FC
:100560000830006840F470500C4908310860081DDC
:10057000006820F47050091D08600846006840F4C7
:10058000A05008600548001D006820F06000034985
:10059000091D08607047000000100240000C004870
:1005A00000B50D48806D40F400300B4988650A485D
:1005B0008830006820F00C00C1F888000846D0F8A8
:1005C000880040F00400C1F88800FFF7AFFF03483F
:1005D00000F006F800BD000000100240004400409A
:1005E000016821F001010160016821F01021016022
:1005F000016821F400410160416821F440514160EB
:1006000042F28D01C160016841F00C0101601E4998
:1006100088421BD1016841F020010160016821F08E
:1006200040010160016821F010010160016821F0C2
:1006300080010160016821F480710160016821F08E
:1006400040010160016821F0010101600F49884209
:1006500009D1016A41F0400101620D49096841F088
:10066000C0010B4A1160016841F00101016000BF47
:10067000C16901F400110029FAD000BFC16901F479
:1006800080010029FAD07047004C0040004400402F
:10069000083801400C48C06C40F001000A49C864A9
:1006A0004FF09040006820F003004FF09041086048
:1006B0000846006840F0020008600846006A40F002
:1006C0000100086270470000001002400C48C06C36
:1006D00040F001000A49C8644FF09040006820F0E3
:1006E0000C004FF0904108600846006840F0080098
:1006F00008600846006A40F0100008627047000079
:1007000000100240FFF750FEFFF700FEFFF748FF22
:1007100000F00EF8FFF7BEFFFFF7D8FF4FF0804064
:10072000006840F001004FF08041086000BFFEE724
:100730003748806D40F001003549886541F63F70CB
:10074000890488620846406940F001004861084613
:10075000806920F0100088610846806940F0200020
:1007600088610846806940F04000886108468069D9
:1007700020F4803088610846806920F480508861C8
:100780000846806940F4005088610846806940F45A
:10079000804088610846806920F080708861084642
:1007A000006840F0800008600846806940F008005A
:1007B00088610846806940F4006088610846806965
:1007C00020F0010088610846806920F002008861FD
:1007D0000846006A40F0010008620846806920F47B
:1007E000807088610846806920F40070886108463E
:1007F000006A40F0100008620846406940F00100BD
:100800004861C820C862322048636420886370470A
:10081000001002404FF04070E1EE100A70470000F7
:10082000300800080000002060060000C401000835
:040000050800018965
:00000001FF
