:020000040800F2
:10000000982D00207D02000803190008A718000899
:1000100001190008C1030008552500080000000070
:100020000000000000000000000000009D0100082A
:10003000C303000800000000F9010008A91D000822
:10004000970200089702000897020008970200082C
:10005000970200089702000897020008970200081C
:10006000970200089702000897020008970200080C
:1000700097020008970200089702000897020008FC
:1000800097020008970200089702000897020008EC
:1000900097020008970200089702000897020008DC
:1000A00097020008970200089702000897020008CC
:1000B000AD1E00089702000897020008970200088A
:1000C00097020008970200089702000897020008AC
:1000D00097020008970200084925000897020008C7
:1000E000970200089702000897020008970200088C
:1000F000970200089702000897020008970200087C
:10010000970200089702000897020008970200086B
:10011000970200089702000897020008970200085B
:10012000970200089702000897020008970200084B
:10013000970200089702000897020008970200083B
:10014000970200089702000897020008970200082B
:10015000970200089702000897020008970200081B
:10016000970200089702000897020008970200080B
:10017000970200089702000897020008000000009C
:100180009702000897020008DFF80CD000F006F98B
:100190000048004731270008982D00202C4B196893
:1001A000086800F05AB880F30988BFF36F8F4FF0EA
:1001B000000080F3118870470000000008480068C4
:1001C000006880F308884FF0000080F3148862B65E
:1001D00061B6BFF34F8FBFF36F8F00DF00BF00BF6B
:1001E00008ED00E0DFF80C00016841F470010160E7
:1001F000704700BF88ED00E0EFF30980BFF36F8F19
:10020000134B1A681EF0100F08BF20ED108A20E96A
:10021000F04F106009B44FF0500080F31188BFF325
:100220004F8FBFF36F8F03F0A1F84FF0000080F302
:10023000118809BC1968086800F014B81EF0100F86
:1002400008BF00F014B880F30988BFF36F8F7047C0
:1002500064000020EFF30580704730C8B0E8C04F5D
:10026000FFF7A1BF30C8B0E8C04FFFF7E7BFB0EC61
:10027000088AB0EC08CAFFF7E6BF000006488047CE
:1002800006480047FEE7FEE7FEE7FEE7FEE7FEE77B
:10029000FEE7FEE7FEE7FEE7691E000889010008A9
:1002A0002DE9F05F0546002092469B4688460646AB
:1002B000814640241BE0284641464746224600F03E
:1002C0005DF853465A46C01A914110D3114618465C
:1002D000224600F044F82D1A67EB01084F462246EB
:1002E0000120002100F03BF817EB00094E41201ED1
:1002F000A4F10104DFDC484631462A46434600F0BB
:1003000000B830BCBDE8C09F40EA01039B0703D0A2
:1003100009E008C9121F08C0042AFAD203E011F844
:10032000013B00F8013B521EF9D27047D2B201E006
:1003300000F8012B491EFBD270470022F6E710B5EA
:1003400013460A4604461946FFF7F0FF204610BD43
:10035000421C10F8011B0029FBD1801A7047202A8B
:1003600004DB203A00FA02F1002070479140C2F10C
:10037000200320FA03F3194390407047202A04DB3E
:10038000203A21FA02F00021704721FA02F3D0400E
:10039000C2F120029140084319467047064C074DB0
:1003A00006E0E06840F0010394E807009847103445
:1003B000AC42F6D3FFF7ECFE403E0008603E00087A
:1003C000FEE770470248416921F48071416170473E
:1003D000001000480248416941F480714161704752
:1003E0000010004810B590F825100024022903D011
:1003F0000421C16301241AE001680A6822F00E0298
:100400000A6001680A6822F001020A6090F844104C
:10041000036C01F01C02012101FA02F25A6080F81B
:100420002510002180F82410816B01B188472046F7
:1004300010BD00002DE9F84FDFF898B100234FF010
:10044000010C4FF0030A4FF00F090BF1040EB9E055
:100450000CFA03F4224070D04D68022D01D0122D09
:100460000ED1DD0800EB8508D8F820505E07F70EA6
:1004700009FA07F6B5430E69BE402E43C8F820605E
:1004800007685E0091F804800AFA06F508F0030890
:10049000AF4308FA06F848EA0708C0F800804F683A
:1004A000012F05D0022F03D0112F01D0122F13D10D
:1004B000D0F80880CF6828EA0508B74047EA08075F
:1004C0008760D0F804800F7928EA0408C7F3001782
:1004D0009F4047EA08074760D1F804806FEA0807A1
:1004E000BF0706D1C76AA743C8F3C0049C403C437A
:1004F000C462C468AC438D68B5402543C5604C6890
:10050000E4005ED5344C256E45F001052566246E69
:1005100023F0030504F001040094304C2E19B46854
:100520009D072F0F09FA07F5AC43B0F1904F05D0A6
:100530002B4DA84204D101251CE042E0002519E022
:10054000284DA84201D1022514E0274DA84201D12F
:1005500003250FE0254DA84201D104250AE0244DD2
:10056000A84201D1052505E0224DA84201D106256A
:1005700000E00725BD402543B560DBF800405D463F
:100580004E689443F60300D514432C60DEF8004017
:1005900075464E689443B60300D514432C600D4D48
:1005A00008352C684E689443F60200D514432C603D
:1005B000084D0C352C684E689443B60200D51443A0
:1005C0002C605B1C0A6832FA03F57FF441AF00F03F
:1005D00013B8000000040140001002400000014078
:1005E0000004004800080048000C004800100048C3
:1005F000001400480018004818BCBDE8E08F000057
:1006000001480068704700005C0000200248016853
:10061000491C0160704700005C00002010B50024F8
:10062000032000F089F8002000F008F808B1012448
:1006300001E000F03BF8204610BD000000B5014687
:1006400087B000221C2000F057F81C2000F048F86A
:100650001348816D41F001018165806D05A900F0AD
:1006600001000690684600F019FB00F037FB0D49C9
:100670004FF08042B0FBF1F10B48491E026041602F
:1006800040F2E7320021C0E90321816000F0FFFD64
:1006900010B1012007B000BD034800F027FEF9E7C4
:1006A0000010024040420F00580100200B4882B069
:1006B000016E41F001010166016E01F0010100913E
:1006C000816D41F080518165806D002200F0805085
:1006D00000900F21901E02B000F00EB800100240F2
:1006E00000F01F02012191404009800000F1E0204C
:1006F000C0F8001170470000F0B40E4B1B680C46A8
:10070000C3F30223C3F10705042D00D90425191DE5
:10071000072901D2002300E0DB1E012606FA05F1BD
:10072000491E214099409E40761E16403143F0BC40
:1007300001F0E8B80CED00E0064900F00702086897
:100740004FF6FF03184040EA0220034A10430860B6
:10075000704700000CED00E00000FA051649B0F506
:10076000007F0868C0F3412009D0022805D008683E
:1007700020F4C06040F480600860002070470128C9
:10078000FBD0086820F4C06040F4007008600B489B
:100790003222006850430A4AB0FBF2F0401C00E0ED
:1007A000401E4A69520501D50028F9D14869400523
:1007B000E3D5032070470000007000406000002077
:1007C00040420F000248006800F4C060704700001B
:1007D000007000402DE9F84F044600270088E54DE1
:1007E0003E46010504F1200B1DD5606E78B1B0F5D1
:1007F000800F11D0B0F5000F04D0B0F5400F22D01B
:1008000001270FE0E86840F48030E8601BE0002139
:10081000201D01F011F903E00021584601F0A2F972
:10082000070010D03E462088C00426D5A06EC0B177
:10083000B0F1807F1AD0B0F1007F0DD0B0F1407FD1
:1008400019D0012718E0D5F88800616E20F4400027
:100850000843C5F88800E6E7E86840F48030E860BF
:1008600009E00021201D01F0E7F803E000215846CF
:1008700001F078F90746F7B13E46206880033AD583
:10088000A86D4FF00008C00009D4A86D40F080505A
:10089000A865A86D4FF0010800F080500090DFF8C7
:1008A000D8A2DAF8001041F48071CAF80010FFF7FE
:1008B000A7FE814610E0D5F88800A16E20F04070B8
:1008C0000843C5F88800D8E7FFF79AFEA0EB0900B7
:1008D000022801D9032705E0DAF80000C005F3D5A6
:1008E000002F7CD04FEA0706B8F1000F03D0A86DA7
:1008F00020F08050A8652078C00707D0D5F8880080
:10090000A16B20F003000843C5F888002078800719
:1009100007D5D5F88800E16B20F00C000843C5F836
:1009200088002078400707D5D5F88800216C20F092
:1009300030000843C5F888002078000707D5D5F8AF
:100940008800616C20F0C0000843C5F8880020785A
:10095000C00607D5D5F88800A16C20F44070084384
:10096000C5F888002078800607D5D5F88800E16CA6
:1009700020F440600843C5F888002088800507D52A
:10098000D5F88800E16D20F440200843C5F88800C0
:100990002088400507D5D5F88800216E20F4401046
:1009A0000843C5F888002078400607D5D5F88800A8
:1009B000216D20F440500843C5F8880020780006D7
:1009C00007D5D5F88800616D20F440400843C5F88C
:1009D00088002088C00509D5D5F8880000E01CE013
:1009E000A16D20F440300843C5F8880020884FF0FE
:1009F000006780044FF080684FD5D5F88800E16E1D
:100A000020F040600843C5F88800E06EB8423CD151
:100A1000E86840F48010E8603FE0D5F8900010F4FA
:100A2000407015D0D4F88410814211D0D5F89000D0
:100A3000D5F8901020F4407041F48031C5F8901042
:100A4000D5F8901021F48031C5F89010C5F89000C9
:100A5000C00710D0FFF7D4FD074641F2883906E001
:100A6000FFF7CEFDC11B494501D903263CE7D5F868
:100A700090008007F4D5D5F89000D4F8841020F4C5
:100A800040700843C5F890002EE7404505D101218C
:100A9000201D00F0D1FF00B106462068000317D5E5
:100AA000D5F88800216F20F040600843C5F8880021
:100AB000206FB84204D1E86840F48010E86007E095
:100AC000404505D10121201D00F0B6FF00B10646CA
:100AD0002068400317D5D5F88800616F20F040608A
:100AE0000843C5F88800606FB84204D1E86840F454
:100AF0008010E86007E0404505D10121201D00F08D
:100B00009BFF00B10646208840041AD5D5F888001E
:100B1000A16F20F040500843C5F88800A06FB0F1E5
:100B2000805F03D0B0F1005F05D00AE00221201DF4
:100B300000F082FF03E00221584601F013F800B1F3
:100B400006462088000407D5D5F88800E16F20F01C
:100B500080400843C5F888002068C00307D555F8D1
:100B6000880FD4F8801020F00040084328603046F9
:100B700000F004B8001002400070004018BCBDE84E
:100B8000E08F00002DE9F0470F46050058D03F4E9A
:100B9000306800F00700B84209D2306820F0070042
:100BA00038433060306800F00700B84248D12878F8
:100BB000374CC0072CD06868032811D0022812D007
:100BC000216898B1490500293ADAA16821F00301AA
:100BD0000143A160FFF714FD804641F2883910E01F
:100BE00021688901EFE721688903ECE78907EAE7D3
:100BF000FFF706FDA0EB0801494502D90320BDE837
:100C0000F087A068696800F00C00B0EB810FEFD1AD
:100C10002878800705D5A068A96820F0F00008436F
:100C2000A060306800F00700B8420BD9306820F0AF
:100C3000070038433060306800F00700B84201D048
:100C40000120DCE72878400705D5A068E96820F492
:100C5000E0600843A0602878000706D5A0682969ED
:100C600020F4605040EAC100A06000F05BF8A16889
:100C7000084AC1F30311515C01F01F01C840064945
:100C80000860BDE8F0470020FFF7D8BC0020024014
:100C900000100240EC3D0008600000200F220260BE
:100CA0000C4A936803F003034360936803F0F00376
:100CB0008360936803F4E063C36092684FF4E06379
:100CC00003EAD20202610448006800F007000860ED
:100CD000704700000010024000200240054806490D
:100CE00000688968054AC1F30221515C01F01F01C7
:100CF000C840704760000020001002402C3E0008F1
:100D00000548064900688968054AC1F3C221515C5B
:100D100001F01F01C8407047600000200010024031
:100D20002C3E000870B52549002318468A68CC6817
:100D300012F00C0204F00306214C4FEA640509D0BE
:100D40000C2A05D0042A26D0082A00D1284670BDD6
:100D5000012E10D10B681B0704D4D1F89430C3F3D3
:100D6000032302E00B68C3F30313164E56F8233037
:100D70007AB10C2AEBD1C86800F00302C868C0F34E
:100D80000210401C022A08D0032A09D0B3FBF0F05D
:100D900008E0184670BD204670BDB4FBF0F001E0DD
:100DA000B5FBF0F0CA68C968C2F306225043C1F32C
:100DB0004161491C4900B0FBF1F070BD00100240D8
:100DC0000024F400FC3D00082DE9F84305007CD028
:100DD000FD4CA06800F00C06E06800F003072878DE
:100DE000C00661D576B10C2E01D1012F0AD0A869B9
:100DF0000028206878D040F001002060FFF700FC58
:100E0000804659E02068800702D5A8690028DED016
:100E1000286A2168090703D5216801F0F00104E080
:100E2000D4F89410F02202EA1111884215D900F08A
:100E30001DFF002849D1206840F00800206020688C
:100E4000296A20F0F000084320606068E96920F416
:100E50007F4040EA0120606015E0206840F0080013
:100E600020602068296A20F0F00008432060606854
:100E7000E96920F47F4040EA01206060286A00F0C0
:100E8000F5FE0028D6D1FFF74DFFA168CF4AC1F388
:100E90000311515C01F01F01C840CD4908600020DA
:100EA000FFF7CCFB00287DD12FE000BFFFF7A8FBA8
:100EB000A0EB0800022876D820688007F6D52068C5
:100EC00040F008002060206801E0BBE00CE0296AE7
:100ED00020F0F000084320606068E96920F47F405A
:100EE00040EA0120606010E020F001002060FFF780
:100EF00087FB804606E000BFFFF782FBA0EB0800FF
:100F00000228D8D820688007F6D42878C00740D0B7
:100F1000082E18D00C2E01D1032F14D06868B0F51C
:100F2000803F17D0B0F5A02F206817D020F4803074
:100F30002060206820F4802020606868E0B1FFF71E
:100F40005FFB804614E02068800322D56868002893
:100F500078D01EE0206840F48030EDE740F4802037
:100F60002060F7E7FFF74CFBA0EB08006428A2D84D
:100F700020688003F6D50CE0FFF742FB804605E0D1
:100F8000FFF73EFBA0EB0800642894D8206880039C
:100F9000F6D4287880073BD5042E11D00C2E04D12E
:100FA000022F01E036E1A1E00AD0E86800282068BD
:100FB0001ED040F480702060FFF722FB07460CE053
:100FC000206840050CD5E8680028C1D008E000BFC3
:100FD000FFF716FBC01B022893D820684005F7D501
:100FE0006068297C20F0F85040EA016060600FE002
:100FF00020F480702060FFF703FB074605E000BF88
:10100000FFF7FEFAC01B022870D820684005F7D40D
:101010002878000729D568690028D4F8940012D0F0
:1010200040F00100C4F89400FFF7EAFA074604E034
:10103000FFF7E6FAC01B022858D8D4F894008007BE
:10104000F6D512E0EDE020F00100C4F89400FFF7BF
:10105000D7FA074605E000BFFFF7D2FAC01B022807
:1010600044D8D4F894008007F6D42878400768D58F
:10107000A06D0027C00008D4A06D40F08050A0658E
:10108000A06D012700F08050009052480168C9050A
:1010900012D40168814641F480710160FFF7B0FA13
:1010A000804605E0FFF7ACFAA0EB080002281DD847
:1010B000D9F80000C005F5D5A868012817D0052883
:1010C000D4F8900018D020F00100C4F89000D4F8B3
:1010D000900020F0040000BFC4F89000A86841F21E
:1010E0008839D0B1FFF78CFA804611E06BE0D4F874
:1010F000900040F00100EFE740F00400C4F89000D9
:10110000F5E700BFFFF77CFAA0EB080149455AD884
:10111000D4F890008007F5D50EE0FFF771FA80460D
:1011200006E000BFFFF76CFAA0EB0801494570D854
:10113000D4F890008007F5D41FB1A06D20F0805046
:10114000A065A86AF0B30C2E6BD00228206820F0AE
:101150008070206004D0206810F0205F47D04AE003
:10116000FFF74EFA064604E0FFF74AFA801B022812
:101170004FD820688001F7D4286BE96A0001103845
:101180000843696BAA6B0902120941EA424108430C
:10119000A98F114A490802EB4151084395F84010C4
:1011A0004908120102EB41610843E060206840F009
:1011B00080702060E06840F08070E060FFF720FA07
:1011C000054610E02BE024E000100240EC3D000852
:1011D00060000020007000400000E0FFFFF710FA00
:1011E000401B022815D820688001F7D517E0E06879
:1011F00020F00300E060E0680B490840E060FFF782
:10120000FFF9054608E000BFFFF7FAF9401B022886
:1012100002D90320BDE8F88320688001F4D40020BF
:10122000F8E70120F6E70000FFFFEEFE70B50400CE
:1012300003D06079002510B105E0012070BD257153
:10124000204600F00DF8022060712068016841F02E
:101250000401016001206071A560002070BD0000E4
:1012600008B500680649884208D10648C16C41F4B7
:101270008021C164C06C00F48020009008BD000093
:10128000000806500010024070477047704710B5C4
:10129000040003D094F83D0010B107E0012010BD18
:1012A000002084F83C00204600F00CF8022084F86E
:1012B0003D00211D206800F0FFFD012084F83D0065
:1012C000002010BD08B500680649884208D10648CC
:1012D000816D41F008018165806D00F0080000908B
:1012E00008BD0000000C0040001002400168CA6800
:1012F00042F00102CA600068826807490A40062A73
:1013000008D082680A40B2F5803F03D0016841F0FE
:10131000010101600020704707000100704770B5AF
:101320000446006801694FF00005C943890715D4D8
:10133000C168C943890711D4E91E016101202077E2
:10134000206880698007204602D0FFF7E7FF04E0AD
:1013500000F0A7F8204600F0A5F82577206801697D
:10136000C943490717D4C168C943490713D46FF06B
:1013700004010161022020772068806910F4407F19
:10138000204602D0FFF7CAFF04E000F08AF82046AA
:1013900000F088F8257720680169C943090716D449
:1013A000C168C943090712D46FF008010161042024
:1013B00020772068C0698007204602D0FFF7AEFF83
:1013C00004E000F06EF8204600F06CF82577206805
:1013D0000169C943C90617D4C168C943C90613D4F2
:1013E0006FF010010161082020772068C06910F4B7
:1013F000407F204602D0FFF791FF04E000F051F853
:10140000204600F04FF8257720680169C943C907D5
:1014100008D1C168C943C90704D1891E01612046AA
:1014200000F041F820680169C943090609D4C16880
:10143000C943090605D46FF0800101612046FFF71A
:1014400024FF20680169C943C90509D4C168C9439B
:10145000090605D46FF4807101612046FFF714FF7F
:1014600020680169C943490609D4C168C9434906CE
:1014700005D46FF040010161204600F01BF82068A0
:101480000169C94389060BD4C168C943890607D4D9
:101490006FF0200101612046BDE87040FFF7F6BE05
:1014A00070BD704770470068B0F1804F01D1FFF701
:1014B000ADB8704770477047704700002DE9F041A4
:1014C00002680446D0691168936810F00F0F4FF05E
:1014D00000055BD003F0010601F49077374369D033
:1014E000C70707D0CF0505D501271762626F42F005
:1014F00001026267820708D5DA0706D02768022250
:101500003A62626F42F004026267420708D5DA0766
:1015100006D0236804221A62626F42F002026267F8
:1015200002070AD501F02002324306D023680822C0
:101530001A62626F42F008026267626F002A32D05C
:10154000800605D5880603D5216E09B12046884757
:10155000606F000703D420688068400625D52046C8
:1015600000F0EEFD20688168490619D5816821F0F8
:1015700040018160E06E98B120498163E06EFEF722
:1015800031FF00280FD0E06E816B06E0860611D592
:101590008E060FD5216E1EE02046BDE8F0410847BB
:1015A0002046FFF789FFBDE8F0812046FFF784FF62
:1015B0006567F8E7C60209D55B0207D54FF48010CE
:1015C00010622046BDE8F041FFF775BF030605D560
:1015D0000B0603D5616E0029DED1E4E74006E2D5B3
:1015E0004806E0D51168204621F040011160202115
:1015F00084F87110656600F055F9D4E72D210008D4
:1016000010B5040003D094F8710010B107E0012078
:1016100010BD002084F87000204600F027F8242038
:1016200084F871002068016821F001010160204602
:1016300000F008FE0128EBD0606A10B1204600F0EF
:10164000E3FC2068416821F4904141602068816892
:1016500021F02A0181602068016841F001010160E8
:101660002046BDE8104000F033BD000010B586B044
:10167000044614216846FEF760FE16492068884239
:1016800026D11548816D41F400318165816D01F4E9
:1016900000310591C16C41F00801C164C06C69461C
:1016A00000F00800059060200090022001900020CA
:1016B000029003200390072004900848FEF7BAFE2A
:1016C000002205212620FFF717F82620FFF708F84B
:1016D00006B010BD0044004000100240000C00485D
:1016E00030B590F87230202B4AD1B1B1AAB190F840
:1016F0007030012B44D0012380F870304165A0F890
:101700005820A0F85A20002202661D038168FF239A
:10171000A94207D1016911B10CE0012030BD40F2AE
:10172000FF110DE07F2419B1B1F1805F05D009E010
:10173000016901BBA0F85C3004E00169D9B13F2127
:10174000A0F85C104267222180F8721001688B6853
:1017500043F001038B608168A94201D1016969B13D
:101760000849016680F870200068016841F49071B2
:101770000160002030BDA0F85C40E3E70249F0E7DB
:10178000022030BDE92100088D21000838B5002570
:10179000009500681449884225D1144C2046617890
:1017A00040690D2902D0A16829B10AE0694601F01B
:1017B000AFFFA5600FE06A46002101F0F7FF0120AE
:1017C000A0600B49207862780A54401CC0B2207097
:1017D0000D540A2800D32570044905480122491CEC
:1017E0007838FFF77DFF38BD00440040000000203E
:1017F0004C0100202DE9F843044690F871001F4683
:1018000016460D4620284BD1C5B1BEB194F87000E4
:10181000012845D0012084F870004FF00008C4F87A
:101820007480212084F87100FEF7EAFEA4F850606D
:101830008146A4F852604FF4805615E00120BDE8BF
:10184000F8838021204600F04DFED8B9A068B04250
:1018500001D12069C0B115F8010B21680885B4F8E1
:101860005200401EA4F85200B4F852004B464FF00C
:10187000000200970028E4D14FF04001204600F01C
:1018800031FE30B10320DAE735F8020BC0F308006F
:10189000E3E7202084F8710084F870800020CEE710
:1018A0000220CCE77047FEE770B5094C054642F2CE
:1018B0001071A06901F0C8FF201D2844002385781D
:1018C0001A461946A06901F073FE284670BD000053
:1018D000000000200948084901604FF4E1314160EF
:1018E000002181600C22C160C0E904128161C161E4
:1018F00001624162FFF784BE00440040D400002032
:10190000FEE770470907090E002806DA00F00F000D
:1019100000F1E02080F8141D704700F1E02080F80D
:10192000001470472DE9F0430025324C85B007467E
:101930002E464FF001094FF00508785D58280CD06D
:1019400078280AD062284DD01CDC4C2843D014DC07
:10195000422847D043281DD126E084F8008084F82F
:101960000180A670E67024A1684600F0F5FD684687
:1019700001F002FC05B0BDE8F08350280ED05228DB
:1019800008D121E063280FD06C2824D0702805D01E
:10199000722819D004F805801AA10BE06119665568
:1019A00081F8029019A105E0611904F8059081F809
:1019B000029018A1684600F0CFFD684601F0DCFBFC
:1019C0006D1C022DB9DBD5E702206119605581F845
:1019D000029013A1EEE703206119605581F802908F
:1019E00011A1E7E704206119605581F8029010A168
:1019F000E0E700000400002063616E63656C0D0A7F
:101A0000000000006E6F6F700D0A0000706175734A
:101A1000650D0A00636F6E74696E75650D0A0000CE
:101A200072696768740D0A006C6566740D0A0000BF
:101A3000626567696E0D0A002DE9F041444C054668
:101A40008846E0680026810728680DD0E16801F02B
:101A50000301814216D1A8B1E0686968C0F30210A1
:101A6000401C88420ED120E0012804D0022805D075
:101A7000032807D108E02168890701E021684905AA
:101A8000002907DB01265FE02168890302D4216871
:101A90004903F5E7E1686A686FF00F0321F073010D
:101AA00003EB021211430143E160206820F08060E3
:101AB0002060FEF7A5FD074605E000BFFEF7A0FD8C
:101AC000C01B022837D820680001F7D4B8F1000FF6
:101AD00018D0B8F1010F1ED0287D4FF07E4140088C
:101AE00001EB4060A96840EA01202169194A1140D0
:101AF00008432061206840F080602060FEF780FD90
:101B000007461AE0A868E9680002090940EA41406E
:101B10002169114AEBE7288A1049400801EB40503F
:101B2000A96840EA012021690D4AE0E7FEF768FD57
:101B3000C01B022801D9032606E020680001F5D564
:101B40002069A969084320613046BDE8F0810000A2
:101B500000100240FF80FFF9FF80FDFF0000E0FF62
:101B6000FF809FFF2DE9F0413D4C06468846E06826
:101B70000025810730680DD0E16801F00301814242
:101B800016D1A8B1E0687168C0F30210401C884209
:101B90000ED120E0012804D0022805D0032807D167
:101BA00008E02168890701E021684905002907DB71
:101BB000012551E02168890302D421684903F5E732
:101BC000E16872686FF00F0321F0730103EB0212FA
:101BD00011430143E160206820F080502060FEF74F
:101BE0000FFD074605E000BFFEF70AFDC01B0228F7
:101BF00029D820688000F7D4B8F1000F15D0307CC8
:101C00004FF07E41400801EB4060B16840EA01209E
:101C10006169144A114008436061206840F08050B7
:101C20002060FEF7EDFC07460FE0B068F1680002A7
:101C3000090940EA414061690B4AEBE7FEF7E0FC25
:101C4000C01B022801D9032506E020688000F5D5D5
:101C500060697169084360612846BDE8F081000051
:101C600000100240FF80FFF9FF80FDFFF8B51C4D1A
:101C700006460024A86DC00002D5FEF7A3FD0DE0C6
:101C8000A86D40F08050A865A86D00F080500090CD
:101C9000FEF798FDA96D21F08051A965B0F5007F90
:101CA00004D0802E07D94FF003040AE0802E08D913
:101CB000A02E01D804E001D1022402E0702E00D150
:101CC00001240848016821F00701214301600068F0
:101CD00000F00700A04201D00120F8BD0020F8BDAF
:101CE00000100240002002400248016821F0040177
:101CF00001607047140400480248016841F0040183
:101D00000160704714040048F0B5052307240A2534
:101D10000E26144A11274FF0140C40B111482830F8
:101D200006291DD2DFE801F01C11131517190D4803
:101D30002430062914D2DFE801F013080A0C0E1033
:101D4000106840F001001060F0BD0460F8E7056025
:101D5000F6E70660F4E70760F2E7C0F800C0EFE7D7
:101D60000360EDE7140C0040012000F031FDFBE7BB
:101D700000B5052816D2DFE800F00306090F0600BB
:101D8000FFF7B2FF0AE0FFF7AFFF01E0FFF7B4FF94
:101D90005DF804EBFEF716BBFFF7AEFF5DF804EB52
:101DA000FEF718BB00BD000010B5502080F311886D
:101DB000BFF34F8FBFF36F8F01F078FE18B1044966
:101DC0004FF080500860002080F3118810BD0000A3
:101DD00004ED00E02DE9F041B8B0442122A8FEF75F
:101DE000ACFA142133A8FEF7A8FA88216846FEF75A
:101DF000A4FA0224E00125901020229426900126C6
:101E00002C94CDE92D4614204FF00708CDE92F087A
:101E10000427CDE9314722A8FEF7D6FF0F20002581
:101E200033900320CDE934053695042133A8379546
:101E3000FEF7A8FE0B480F95009040061D900597F1
:101E4000CDE901460C20CDE90308E004CDE90640C8
:101E50006846FEF7BFFC2002FEF780FC38B0BDE804
:101E6000F0810000020004000D48016841F4700197
:101E700001600C48016841F00101016000218160AE
:101E80000268094B1A4002608214C260026822F4A0
:101E90008022026081610249C00380390860704776
:101EA00088ED00E000100240FFFFF6EA0148FFF76E
:101EB00036BA0000580100202DE9F0470268264B91
:101EC000264D274E274F284C4FF0804A984209D084
:101ED000504507D0A84205D0B04203D0B84201D047
:101EE000A04204D122F0700C4A6842EA0C02DFF8EA
:101EF0007CC0DFF87C80DFF87C9098420FD05045A2
:101F00000DD0A8420BD0B04209D0B84207D0A042B1
:101F100005D0604503D0404501D0484503D122F4A7
:101F20004075CA682A434D6922F080022A43026044
:101F30008A68C2620A688262984207D0A04205D0CD
:101F4000604503D0404501D0484501D1096901638E
:101F500001214161BDE8F087002C014000040040F0
:101F600000080040000C00400034014000400140E7
:101F700000440140004801402148816D41F00801C2
:101F800081652048016841F63F72114301601D4898
:101F90001038016821F440710160011D0A6822F0C7
:101FA00003020A60026822F4E04202600A6822F436
:101FB000E0420A60026842F4D0420260086840F0E1
:101FC000680008600F482838016841F0800101600E
:101FD0000C480838016841F4887101600949C8203B
:101FE000091D086007490E2010310860091D0860AE
:101FF00004481438016841F0010101607047000095
:1020000000100240280C004090F82410C90706D0A8
:1020100001684A68836A22F400321A434A6090F8E1
:102020002410890706D501684A68C36A22F4803201
:102030001A434A6090F82410490706D501684A6897
:10204000036B22F480221A434A6090F82410090797
:1020500006D501684A68436B22F400421A434A607D
:1020600090F82410C90606D501688A68836B22F4AB
:1020700080521A438A6090F82410890606D50168B8
:102080008A68C36B22F400521A438A6090F82410C5
:10209000490611D501684A68036C22F480121A437C
:1020A0004A60016CB1F5801F06D101684A68436C33
:1020B00022F4C0021A434A6090F82410090606D59B
:1020C00001684A68806C22F4002202434A6070472B
:1020D000F8B5002604464667FEF792FA05462068E2
:1020E00000686FF07E47000708D52B4600224FF4AA
:1020F00000112046009700F0F5F960B920680068EB
:1021000040070AD52B4600224FF480012046009755
:1021100000F0E8F908B10320F8BD202084F8710030
:1021200084F8720084F870600020F8BD10B5806AF1
:102130000021A0F85A10A0F85210FFF7BDF910BD09
:1021400001680A6822F490720A6001688A6822F0C5
:1021500001028A60202180F8721000210166704718
:1021600010B5012001F0AAF9064C2061012001F010
:10217000A5F901226061611CBDE810400248FFF72B
:10218000AFBA000000000020D400002010B5B0F865
:102190005C2090F872300168222B04D0088B40F04C
:1021A0000800088310BD898C436D11401980416D72
:1021B000891C4165B0F85A10491E0904090CA0F8A1
:1021C0005A10EFD101680A6822F490720A6001681F
:1021D0008A6822F001028A60202180F872100021B2
:1021E0000166FFF7D3FA10BD10B5B0F85C2090F887
:1021F00072300168222B04D0088B40F0080008835D
:1022000010BD898C1140426D531C43651170B0F8AC
:102210005A10491E0904090CA0F85A10F0D101689F
:102220000A6822F490720A6001688A6822F001024A
:102230008A60202180F8721000210166FFF7A6FA5B
:1022400010BD00002DE9F041044601688068236953
:10225000E669184363691025002733431843954AFC
:102260000B68954E334003430B6020684168E36878
:1022700021F44051194341602168A069914201D085
:10228000236A18438B6823F4306303438B608B4BC2
:1022900021688B4899420DD1D0F8880010F00300D6
:1022A00006D001285AD0022856D0032859D157E029
:1022B000012556E0834B99420BD1D0F8880010F0ED
:1022C0000C0047D0042849D0082845D00C2848D114
:1022D00046E07D4B99420BD1D0F8880010F03000D9
:1022E00038D010283AD0202836D0302839D137E0DD
:1022F000764B99420BD1D0F8880010F0C00029D05D
:1023000040282BD0802827D0C0282AD128E0704B25
:1023100099420ED1D0F8880010F440701AD0B0F570
:10232000807F1BD0B0F5007F16D0B0F5407F18D16C
:1023300016E0914215D1D0F8880010F4406009D021
:10234000B0F5806F0AD0B0F5006F05D0B0F5406FE2
:1023500007D105E0002504E0022502E0042500E0A5
:1023600008255C4B00264FF4004091423DD135B129
:10237000022D07D0042D07D0082D10D107E0FEF75D
:10238000ADFC03E0184602E0FEF7CCFCA8B362689F
:1023900002EB4201814202D8B0EB023F01D9012792
:1023A00075E0DFF834815DB1022D0CD0042D13D01F
:1023B000082DF4D150082905401846F1000105E028
:1023C000FEF78CFC0AE050084449F5E70023FDF7CE
:1023D00067FFA0F5407156E0FEF7A4FC6268010EAD
:1023E0000302500818187141F0E7E1694FF6EF78E1
:1023F00081422FD1092DD2D200E048E0DFE805F07C
:1024000006092005230505052600C8E7FEF766FC3A
:1024100001E0FEF775FC4100D4F8040001EB500127
:10242000B1FBF0F080B2A0F110014145B7D84FF6F2
:10243000F0710140C0F3420001432068C16026E012
:1024400027496068EAE7FEF76DFCE4E74FF4803166
:102450006068E3E7092DA2D2DFE805F006091E0552
:102460002205050525009AE7FEF738FC01E0FEF796
:1024700047FC0146606801EB500100BFB1FBF0F082
:1024800080B2A0F11001414589D82168C860266654
:1024900038466666BDE8F081606803EB5001EDE701
:1024A000FEF740FCE5E7616800EB5100B0FBF1F09E
:1024B000E6E7000000800040F369FFEF00380140CC
:1024C000001002400044004000480040004C004022
:1024D000005000400024F400FFFC0F00000024F432
:1024E0000048E8012DE9F041984617460E4604469B
:1024F000069D1DE0681C1BD02DB1FEF781F8A0EBF6
:102500000800A84214D92068016821F4D071016044
:102510002068816821F001018160202084F8710029
:1025200084F87200002084F870000320BDE8F08178
:102530002068C06936EA000004D00020B842D9D033
:102540000020F3E70120F9E70148FEF7B7BF0000DC
:10255000D4000020FEE700000FB4084B10B504A91A
:1025600002AA039800F01BF8044602A9002000F01C
:1025700084F8204610BC5DF814FB00007B260008A0
:1025800002E008C8121F08C1002AFAD1704770473C
:10259000002001E001C1121F002AFBD170472DE984
:1025A000F84F9946924688460546002706E02528BA
:1025B0000AD051464A4690476D1C7F1C2878002857
:1025C000F5D1384600F056B8002315F8011F18461B
:1025D0002E2915D115F8011F04232A290DD06FF0DB
:1025E0002F022978A1F13004092C09D800EB8000D2
:1025F00002EB400008446D1CF3E758F8040B6D1C17
:102600002A78002ADDD0632A07D0732A0FD010461B
:1026100051464A4690477F1C2AE018F8042B8DF853
:10262000002000218DF801106E46012103E058F8CA
:10263000046B4FF0FF315A074FF0000401D409E05A
:10264000641C84420BDA8C42FADB325D002AF7D13B
:1026500005E0641C8C42FCDB305D0028F9D1274486
:1026600004E016F8010B51464A469047641EF8D222
:102670006D1CA3E718BCBDE8E08F0A68531C0B6013
:10268000107070478AB01EA16846FFF765FF684664
:1026900000F072FD002421A16846FFF75DFF684647
:1026A00000F06AFD1F4D00261E490122491C1E48EC
:1026B000FFF716F86A78DAB11CA109A8FFF74CFFFA
:1026C00009A800F059FD022C03D008A96878085524
:1026D0000DE042F21071A86901F0B6F808A8FFF702
:1026E00021F900231A461946A86900F061FF641C0D
:1026F0006E70032CD8DB0024684600F03DFDD3E764
:10270000496E7075742074687265616420696E69C1
:102710007469616C697A65640A0D00000D0A3E3EB9
:102720002000000000000020D400002025630000ED
:10273000A6B0FDF773FFFFF74DFB1848C16C41F0E1
:102740000101C164C16C01F001012591C16C41F02E
:102750000801C164C06C00F008002590FFF7BAF8CA
:1027600010490F4808600846FEF760FDFFF7F8FCC7
:10277000FFF702FC0CA16846FFF7EEFE14220F499A
:1027800020A8FDF7C1FD002120A800F02DF80C497C
:10279000C86000F0BFFB00F022F8FEE70010024026
:1027A00000080650C40000205541525420496E696B
:1027B0007469616C697A65640D0A0000D83D00088F
:1027C0000000002001460020842900D0C81C70476A
:1027D00010B500B9012000F0EDFC002010BD10B5CF
:1027E00000F088FD002010BD3EB504460D46B0F94E
:1027F0000800FFF7E7FF02A9CDE90001208A2B4678
:1028000082B2D4E9001001F015F9012801D00020AE
:102810003EBD02983EBD0000F0B4294C0746A4F12D
:102820002203402832D014DC7FB3202828D1052988
:1028300028D8234B203353F82200401A00D54042B9
:10284000400044F8220043F82210F0BC1046FFF785
:102850005BBA1B4D083D05F1100405F1200604F19B
:102860000800802F16D0A02F0AD150F8221000297E
:1028700020DD491E40F8221056F8220045F82200BB
:10288000F0BC704702209854FAE717E0491C44F85E
:102890002210F5E754F82270012F09D040F82210D9
:1028A000012044F8220055F8220046F82200E7E70C
:1028B0000320E8E7002044F82200E1E70420E2E7F3
:1028C0002400002030B41F4D0446B1B3012901D0CB
:1028D00004290DD11B4B223303F12000032C09D016
:1028E000022C0DD00020042C1AD0012C00D1A854A9
:1028F00030BC704750F822100529F9DA491C04E071
:1029000050F822100029F3DD491E40F8221053F838
:102910002200801C43F8220030BC1046FFF7F4B9B7
:1029200008491A3141F82200103143F8220041F8D9
:102930002200103141F82200D9E7FFE70028D7D163
:102940000120D4E7020000202DE9F041184C0F4689
:10295000054666692068001D00F02AFB38B920682A
:1029600090F82C1001208840A1698143A161681C66
:1029700007D137B12168BDE8F0410E48091D00F0CC
:1029800051BB20683544B5424560216805D2A06836
:10299000BDE8F041091D00F02DBB6068091D00F085
:1029A00029FB206B854200D22563BDE8F081000041
:1029B00064000020740200202DE9F041054600F07B
:1029C0003DFB2E4C2069401C206120682C4F10B12B
:1029D000E06940B32DE025602069012829D1002657
:1029E00006EB860007EB800000F0F6FA761C072E57
:1029F000F6D323488C3000F0EFFA2148A03000F0E5
:102A0000EBFA1F48B43000F0E7FA1D48C83000F078
:102A1000E3FA1B48DC3000F0DFFA19488C306060C4
:102A20001430A06005E02068E96AC06A884200D8D6
:102A30002560E06A401CE062E96A0120A2698840E2
:102A40001043A06101EB810007EB8000291D00F01D
:102A5000E9FA00F013FBE06900280CD02068E96A6D
:102A6000C06A884207D207494FF080500860BFF320
:102A70004F8FBFF36F8FBDE8F0810000640000202E
:102A80009801002004ED00E030B4026C0B46002AEF
:102A90000BD0C1681144C1604468A14201D30168F0
:102AA000C16030BC1846FDF72FBC30BC70472DE923
:102AB000F041856B174604460026026C82B1C7B10F
:102AC000E068FDF721FCE168206C091AE1602268EA
:102AD000914202D26168081AE060022F16D017E016
:102AE0002068A8B9606801F045F8064600206060DB
:102AF0000EE0A068FDF708FC216CA0680844A06007
:102B00006168884204D32068A06001E005B16D1EB1
:102B10006D1CA5633046BDE8F08110B50446006B1E
:102B200000F0C0FA2046BDE8104000F0BBBA00003B
:102B30000F4842F21071420705D0C01D0C4A20F028
:102B40000700821A891A0B4A00230144C2E90003D4
:102B50000839103A21F0070111604B600B600B1A25
:102B6000C0E9001393604FF000405360D06070479D
:102B700088020020B0000020154E164CA6F1C807B0
:102B80004FF08058DFF8509012E000BF00F056FA86
:102B9000F068C568281D00F00BFA2069401E20610E
:102BA000E068401EE06000F069FA2846FFF7B5FFD4
:102BB000E0680028EAD13868012805D9C9F8008002
:102BC000BFF34F8FBFF36F8F00F005FAF0E70000FF
:102BD000600200206400002004ED00E02DE9F047D1
:102BE0009A46DDE9098481466FF00303206B03EB0D
:102BF00082021044089D20F00706700707D050207D
:102C000080F31188BFF34F8FBFF36F8FFEE7231858
:102C10000A5C83F834200A5C12B1401C1028F6D3F9
:102C2000002784F84370072D00D30625E562C4E928
:102C30001157201D00F0DBF904F1180000F0D7F95E
:102C40002461C5F107006462A061E76484F85070F4
:102C500052464946304600F00FF92060B8F1000FA7
:102C600001D0C8F80040BDE8F087000030B5114938
:102C700000E011460A688242FBD34B685C1884422C
:102C800003D1406818444860084643681C189442C1
:102C900009D1084C103C2468A24209D052681A4459
:102CA00042600A6812680260814200D0086030BD4C
:102CB0000460F9E7B000002010B5044600F0BEF94A
:102CC000A06B28B15FF0000400F0D8F9204610BDD9
:102CD0000124F9E706484168096829B14168C968D3
:102CE000C9684968016370474FF0FF31FAE7000097
:102CF0006400002008484068401C4FF0500080F3FA
:102D0000118804D0BFF34F8FBFF36F8FFEE7BFF37F
:102D10004F8FBFF36F8FFEE7B80000202DE9F04121
:102D2000044600F08BF994F9455004F1240609E0BB
:102D3000606A48B1304600F0B3FF08B100F068FAAD
:102D40006D1E6DB2002DF3DC4FF0FF3684F8456048
:102D500000F094F900F072F994F9445004F110076E
:102D600009E0206948B1384600F09AFF08B100F048
:102D70004FFA6D1E6DB2002DF3DC84F84460BDE89F
:102D8000F04100F07BB900002DE9F0410546002735
:102D900000F0E4FA314E306808B9FFF7C9FEF06878
:102DA00005424BD1C5B3083568070ED005F00700C2
:102DB000C0F108000544680707D0502080F311884F
:102DC000BFF34F8FBFF36F8FFEE72DB3706885425F
:102DD00034D82248103001460C6801E020460C46E9
:102DE0006168A94202D221680029F7D131688C427A
:102DF00024D007682168016060680837411B1029EA
:102E00000FD96019420708D0502080F31188BFF312
:102E10004F8FBFF36F8FFEE710E041606560FFF7F3
:102E200025FF61687068401A7060B268904200D2F5
:102E3000B060F06801430020C4E9000100F06AFFBF
:102E4000780707D0502080F31188BFF34F8FBFF36E
:102E50006F8FFEE73846BDE8F0810000A00000203B
:102E60000449086818B10868826C521C82640868BA
:102E7000704700006400002010B5031F4FF08074FD
:102E80001C601B1F21F001011960191F044B0B600E
:102E900014390A60091F6FF0020244380A6010BD3D
:102EA000F52C00081A4E0468A6F122052046FEF70C
:102EB000FBFC30B11648295D20382246005DFFF743
:102EC00001FD285DE8B956F82400002803DD401E06
:102ED00046F82400EAE70E480D4F3030083F50F81E
:102EE000240057F824102246405C00F0E00300F074
:102EF0001F011846FFF790FC57F82400401C47F8C4
:102F00002400002CD2D12878FEF732FFCEE7000053
:102F10002400002010B58AB0012000F0CFFA134938
:102F2000886113A102A8FFF717FB02A800F024F99B
:102F3000002400942346802213A11748019400F036
:102F400079FD0A4B00944C33802214A11748019458
:102F500000F070FD054B0094503380220FA1134800
:102F6000019400F067FD0AB010BD000000000020D1
:102F7000496E697469616C697A696E672054687218
:102F8000656164730D0A0000696E7075745F746822
:102F90007265616400000000852600087365727622
:102FA0006F5F74687265616400000000A52E000800
:102FB000D0E9013201699A60D0E901235A604A6878
:102FC000824201D182684A60002202610868401E84
:102FD000086008687047704700F108014FF0FF3241
:102FE000C0E90112C1600161002101607047002148
:102FF0000161704730B50B685A1C02D000F108021D
:1030000002E0026904E02246546825689D42FAD92C
:1030100053684B6099608A60516008610168491C7F
:10302000016030BD42684A6093688B609368596064
:10303000916008610168491C01607047502080F36D
:103040001188BFF34F8FBFF36F8F0A494868401C48
:10305000486001280CD10848006810F0FF0F07D025
:10306000502080F31188BFF34F8FBFF36F8FFEE7BF
:1030700070470000B800002004ED00E008494868EF
:1030800028B1401E486001D180F31188704750205C
:1030900080F31188BFF34F8FBFF36F8FFEE70000FF
:1030A000B800002070B5002827D0144DA0F1080406
:1030B0006168E868014207D1502080F31188BFF3AE
:1030C0004F8FBFF36F8FFEE722683AB1502080F335
:1030D0001188BFF34F8FBFF36F8FFEE781436160AD
:1030E00000F03CF960686968084468602046FFF7B2
:1030F000BDFDBDE8704000F00DBE70BDA000002019
:103100004FF0E02000210161816105494FF47A729E
:103110000968B1FBF2F1491E416107210161704765
:103120006000002010B5FDF795F8114910280ED366
:1031300000F1E02090F8F0030A78904207D2502086
:1031400080F31188BFF34F8FBFF36F8FFEE70948FD
:103150000068896800F4E060884207D9502080F355
:103160001188BFF34F8FBFF36F8FFEE710BD0000D4
:10317000B80000200CED00E070B50C4C05464FF097
:10318000FF31206900F060FB2846FDF7E1F882B2CC
:1031900042F2107329460648FEF72CFB2069BDE871
:1031A000704000231A46194600F002BA00000020C1
:1031B000D400002010B5020014D00F48806B38B145
:1031C000502080F31188BFF34F8FBFF36F8FFEE75E
:1031D00000F0C4F800211046FFF7B6FB00F09AFD9E
:1031E000002807D105494FF080500860BFF34F8F8A
:1031F000BFF36F8F10BD00006400002004ED00E0FD
:1032000002498A6A0260496941607047640000208F
:1032100001490120486270476400002010B50C4647
:1032200050B1094909681831FFF7E4FE2046BDE8AE
:1032300010400121FFF788BB502080F31188BFF3B5
:103240004F8FBFF36F8FFEE76400002070B504005E
:103250004BD0A26CA2B1606C884200D30146E06AF8
:10326000884242D0012A40D1204D2A6894420FD191
:10327000502080F31188BFF34F8FBFF36F8FFEE7AD
:10328000502080F31188BFF34F8FBFF36F8FFEE79D
:10329000E162A269002A02DBC1F10701A161144EBB
:1032A00000EB8000616906EB800081421DD1201D8A
:1032B000FFF77EFE012150B9E06A00EB800256F86C
:1032C000222022B9AA6901FA00F08243AA61E06AC9
:1032D000AA6981401143A96100EB800006EB8000E0
:1032E000211DBDE87040FFF79DBE70BD6400002049
:1032F000980100201CB515480024CDE90040234664
:10330000802213A1144800F095FB012809D0401C2D
:103310001AD1502080F31188BFF34F8FBFF36F8F06
:10332000FEE7502080F31188BFF34F8FBFF36F8FFC
:1033300006484FF0FF31343801630121C161446117
:10334000BDE81C4000F040B81CBD00009800002003
:1033500049444C4500000000792B00080248816B6D
:10336000491C816370470000640000201448816B91
:1033700011B1012141627047002141628169B1FAB6
:1033800081F1C1F11F0101EB81020E4951F8223098
:103390006BB101EB820101F108034A6852684A608F
:1033A0009A4201D152684A60D1680160704750204A
:1033B00080F31188BFF34F8FBFF36F8FFEE70000DC
:1033C00064000020980100201CB537480168374A86
:1033D000914207D1502080F31188BFF34F8FBFF384
:1033E0006F8FFEE700683149491E884207D150209F
:1033F00080F31188BFF34F8FBFF36F8FFEE72C4927
:1034000008780190FF20087008788DF800009DF87A
:1034100000009DF8002000F0F000904207D05020FE
:1034200080F31188BFF34F8FBFF36F8FFEE79DF8D6
:103430000000204B00F0500018700720986005E055
:103440009DF8002052008DF80020401E9DF80020BD
:103450001206F5D49860032807D0502080F3118815
:10346000BFF34F8FBFF36F8FFEE74FF4407098604C
:10347000019808700C482030016841F47001016027
:10348000016841F070410160FFF73AFE002058608A
:10349000FCF7A8FE0848016841F040410160FCF7D4
:1034A0008DFE00201CBD000000ED00E071C20F4148
:1034B00000E400E0B800002034EF00E010B5024660
:1034C0000021012000F00CF8041E07D0002141600B
:1034D00001600B460A46C16000F06AF8204610BD44
:1034E00070B50E46050013D0D6B105FB06F0483086
:1034F000FFF74AFC040009D004F1480120468EB1D0
:103500000160C0E90F56012100F00EF8204670BDA1
:10351000502080F31188BFF34F8FBFF36F8FFEE70A
:103520000020E4E70060ECE770B50D46040025D00C
:10353000FFF784FDD4E90F20216802FB00116160D0
:103540000021A1632168A1600A46D4E90F01401E51
:1035500000FB0121E16021464FF0FF3001F8440FEC
:10356000487004F110008DB1FFF736FD04F124001E
:10357000FFF732FDFFF782FD012070BD502080F380
:103580001188BFF34F8FBFF36F8FFEE721690029CA
:10359000F0D000F085FB0028ECD004494FF08050BB
:1035A0000860BFF34F8FBFF36F8FE3E704ED00E0D8
:1035B0002DE9FF4782B01D468A464FF000080400FF
:1035C00003D0BAF1000F08D011E0502080F3118829
:1035D000BFF34F8FBFF36F8FFEE7206C38B15020E1
:1035E00080F31188BFF34F8FBFF36F8FFEE7022D7B
:1035F0000AD1E06B012807D0502080F31188BFF377
:103600004F8FBFF36F8FFEE700F042FA3F4F4FF04E
:1036100000094FF0805648B9049838B1502080F323
:103620001188BFF34F8FBFF36F8FFEE7FFF706FDE3
:10363000A06BE16B884207D3022D05D00498D0B16E
:10364000B8F1000F1AD01EE02A4651462046FFF777
:103650002EFA616A19B104F1240000F021FB20B1B7
:103660003E60BFF34F8FBFF36F8FFFF707FD012061
:1036700006B0BDE8F087FFF701FD22E06846FFF7DE
:10368000BFFD4FF00108FFF7F9FCFFF767FEFFF7FA
:10369000D5FC94F94400401C01D184F8449094F97D
:1036A0004500401C01D184F84590FFF7E7FC04A9D0
:1036B000684600F085F930B12046FFF72FFB00F097
:1036C00029FB0020D4E7FFF7B9FCA06BE16B88422F
:1036D00013D1FFF7D3FC04F110000499FFF79EFD0E
:1036E0002046FFF71BFB00F015FB00289ED13E6033
:1036F000BFF34F8FBFF36F8F98E7FFF7BFFC2046F4
:10370000FFF70CFB00F006FB90E7000004ED00E083
:1037100070B50E46040009D0206C78B1502080F3BB
:103720001188BFF34F8FBFF36F8FFEE7502080F3F8
:103730001188BFF34F8FBFF36F8FFEE7206848B942
:10374000606838B1502080F31188BFF34F8FBFF30A
:103750006F8FFEE7FFF7E6FC5020EFF3118580F353
:103760001188BFF34F8FBFF36F8FA16BE06B88425F
:1037700018D994F94500491CA163411C04D0401C90
:1037800084F8450001200EE0606A0028FAD004F1B8
:10379000240000F085FA0028F4D0002EF2D0012099
:1037A0003060EFE7002085F3118870BD2DE9F04708
:1037B00090468946040003D0B9F1000F08D011E00B
:1037C000502080F31188BFF34F8FBFF36F8FFEE758
:1037D000206C38B1502080F31188BFF34F8FBFF3B6
:1037E0006F8FFEE7FFF79EFC5020EFF3118680F30A
:1037F0001188BFF34F8FBFF36F8FA76BF7B194F9A9
:10380000445049462046FFF73FF97F1EA763681CD6
:1038100004D06D1C84F84450012010E02069002879
:10382000FAD004F1100000F03BFA0028F4D0B8F10F
:10383000000FF1D00121C8F80010EDE7002086F359
:103840001188BDE8F08700002DE9F343002683B01E
:103850000400354609D0206C78B1502080F31188DF
:10386000BFF34F8FBFF36F8FFEE7502080F31188B7
:10387000BFF34F8FBFF36F8FFEE700F009F9DFF85A
:103880003C814FF000094FF0805748B9049838B197
:10389000502080F31188BFF34F8FBFF36F8FFEE787
:1038A000FFF7CCFBA06BC8B1401EA063206810B925
:1038B000FFF7D6FA6060206950B104F1100000F003
:1038C000EFF928B1C8F80070BFF34F8FBFF36F8FC7
:1038D000FFF7D4FB012005B0BDE8F083049808B1E0
:1038E00066B10FE03DB1502080F31188BFF34F8FD8
:1038F000BFF36F8FFEE7FFF7C1FB5DE06846FFF7A0
:103900007FFC0126FFF7BAFBFFF728FDFFF796FBC8
:1039100094F94400401C01D184F8449094F9450086
:10392000401C01D184F84590FFF7A8FB04A9684624
:1039300000F046F80028204612D0FFF7EFF900F01B
:10394000E9F92046FFF7B8F90028A9D09DB3FFF7A1
:1039500075FB606A50B3206B0068C0F1070126E078
:10396000FFF7AAF9E0B1206838B9FFF767FB606894
:1039700000F04CF90546FFF781FB04F1240004999F
:10398000FFF74CFC2046FFF7C9F900F0C3F9002807
:1039900086D1C8F80070BFF34F8FBFF36F8F7FE7FA
:1039A0002046FFF7BBF900F0B5F979E70021606820
:1039B000FFF74CFC9FE7FFE700208CE704ED00E0F9
:1039C0002DE9F0410C46050011D0C4B1FFF736FBDC
:1039D000174B5A696E682068911B471C17D02F68D7
:1039E0009B6A9F4219D0964217D8012410E05020BC
:1039F00080F31188BFF34F8FBFF36F8FFEE7502026
:103A000080F31188BFF34F8FBFF36F8FFEE7002461
:103A1000FFF734FB2046BDE8F081884205D9401A03
:103A200020602846FFF7ECFBF1E700202060DCE790
:103A3000640000202DE9FF5F8346DDE90E8799468B
:103A400016468A469000FFF79FF905001AD05420C9
:103A5000FFF79AF9040012D025630021CDE9024155
:103A6000CDE900874B46324651465846FFF7B6F837
:103A70002046FEF7A1FF012004B000F006B828465A
:103A8000FFF710FB4FF0FF30F6E730BCBDE8C09FFA
:103A90000548C16919B1806B18B100207047012039
:103AA0007047022070470000640000202DE9F041BB
:103AB0002E4C0027A06B40B1206A401C2062606A37
:103AC00000B101273846BDE8F0816669761C666161
:103AD00013D16068006838B1502080F31188BFF3BB
:103AE0004F8FBFF36F8FFEE76068A1686160A060D1
:103AF000A06A401CA062FFF7EDF8206BDFF8708031
:103B0000864209D36068006880B16068C068C56893
:103B1000686886420DD220632068C06A00EB80018D
:103B200058F821000128CAD90127C8E74FF0FF3013
:103B3000F1E7281DFFF73CFAA86A18B105F1180053
:103B4000FFF736FAE86A0121A26981401143A161B9
:103B500000EB800108EB8100291DFFF763FAE86A9A
:103B60002168C96A8842CDD30127CBE764000020D1
:103B70009801002070B504004FF0000140D0214DA5
:103B80002868844207D0502080F31188BFF34F8FFC
:103B9000BFF36F8FFEE7A06C38B1401EA064636C6A
:103BA000E26A9A422CD040B12AE0502080F311887A
:103BB000BFF34F8FBFF36F8FFEE7201DFFF7F8F9BC
:103BC000114A012150B9E06A00EB800352F823301A
:103BD00023B9AB6901FA00F08343AB61606CE0622A
:103BE000C0F10700A061E06AAB6981401943A96197
:103BF00000EB800002EB8000211DFFF713FA01218A
:103C0000084670BD640000209801002070B50400D3
:103C10004FF0000038D0204DE16A2A68D26A914204
:103C200033D2A069002804DB2868C06AC0F107000D
:103C3000A0611A4E01EB8101606906EB81018842A7
:103C40001ED1201DFFF7B4F9012150B9E06A00EB45
:103C5000800256F8222022B9AA6901FA00F08243B4
:103C6000AA612868C06AE062AA6981401143A9611B
:103C700000EB800006EB8000211DFFF7D3F902E086
:103C80002868C06AE062012070BD616C2A68D26A4F
:103C90009142F8D370BD000064000020980100201C
:103CA0002DE9F041C068C468ACB104F118000746C2
:103CB000FFF77EF9154DA86B0126A0B139461448CF
:103CC000FFF7B0F9E06A2968C96A88421CD9012067
:103CD0006E62BDE8F081502080F31188BFF34F8FF2
:103CE000BFF36F8FFEE7201DFFF762F9E16AAA6953
:103CF00006FA01F01043A86101EB81000449B439D0
:103D000001EB8000211DDBE70020E2E764000020DA
:103D10004C0200202DE9F0472C4D00242746A86BCB
:103D200038B1FFF78BF9A86B401EA863A86B40B1B0
:103D300046E0502080F31188BFF34F8FBFF36F8FA1
:103D4000FEE72969224E0120D1B3A6F1B4098046CD
:103D50003068E8B1F068C46804F11800FFF728F98A
:103D6000201DFFF725F9E06AAA6908FA00F111435E
:103D7000A96100EB800109EB8100211DFFF752F9D9
:103D8000E06A2968C96A8842E2D3C5F82480DFE77F
:103D90000CB1FEF79FFF2C6A44B14646FFF786FE42
:103DA00000B16E62641EF9D100202862686A38B1E1
:103DB0000849012738070860BFF34F8FBFF36F8FA3
:103DC000FFF75CF93846BDE8F0870000640000208A
:103DD0004C02002004ED00E0343E0008691D00089C
:103DE0000000000000000000800000000000000053
:103DF000000000000102030406070809A086010074
:103E0000400D0300801A060000350C0040420F00F0
:103E100080841E0000093D0000127A000024F40096
:103E200000366E010048E801006CDC020000000072
:103E30000102030464656661756C745461736B0000
:103E4000603E000800000020C4000000802500083B
:103E5000243F0008C4000020D42C00009025000856
:103E60000000010105050000000000000000000046
:103E70000000000000000000000000000000000042
:103E80000000000000000000000000000000000032
:103E90000000000000000000000000000000000022
:103EA000000000000300000003000000000000000C
:103EB0000100000000000000000000000000000001
:103EC00000093D00000000000000000000000000AC
:103ED00000000000000000000000000000000000E2
:103EE00000000000000000000000000000000000D2
:103EF00000000000000000000000000000000000C2
:103F000000000000000000000000000000000000B1
:103F1000000000000000000000000000AAAAAAAAF9
:043F2000000000009D
:040000050800018965
:00000001FF
