:020000040800F2
:1000000088070020310200086D0200086F02000816
:100010007102000873020008750200080000000069
:10002000000000000000000000000000770200084F
:1000300079020008000000007B0200087D02000831
:100040007F0200087F0200087F0200087F0200088C
:100050007F0200087F0200087F0200087F0200087C
:100060007F0200087F0200087F0200087F0200086C
:100070007F0200087F0200087F0200087F0200085C
:100080007F0200087F0200087F0200087F0200084C
:100090007F0200087F0200087F0200087F0200083C
:1000A0007F0200087F0200087F0200087F0200082C
:1000B0007F0200087F0200087F0200087F0200081C
:1000C0007F0200087F0200087F0200087F0200080C
:1000D0007F0200087F0200087F0200087F020008FC
:1000E0007F0200087F0200087F0200087F020008EC
:1000F0007F0200087F0200087F0200087F020008DC
:100100007F0200087F0200087F0200087F020008CB
:100110007F0200087F0200087F0200087F020008BB
:100120007F0200087F0200087F0200087F020008AB
:100130007F0200087F0200087F0200087F0200089B
:100140007F0200087F0200087F0200087F0200088B
:100150007F0200087F0200087F0200087F0200087B
:100160007F0200087F0200087F0200087F0200086B
:100170007F0200087F0200087F02000800000000E4
:100180007F0200087F02000800F002F800F041F84A
:100190000AA090E8000C82448344AAF10107DA45E2
:1001A00001D100F036F8AFF2090EBAE80F0013F0F3
:1001B000010F18BFFB1A43F0010318479008000015
:1001C000B0080000103A24BF78C878C1FAD85207A6
:1001D00024BF30C830C144BF04680C6070470000C1
:1001E0000023002400250026103A28BF78C1FBD840
:1001F000520728BF30C148BF0B607047692900F023
:10020000A180002070471FB500F01AFC1FBD10B57B
:1002100010BD00F06CF91146FFF7F5FF00F09AFBF6
:1002200000F08AF903B4FFF7F2FF03BC00F092F983
:1002300016481749174B99423CBF50F8042B41F818
:10024000042BF8D314494FF000028B4238BF43F817
:10025000042BFAD3DFF84400016841F47001016017
:10026000BFF34F8FBFF36F8F0D480047FEE7FEE7E8
:10027000FEE7FEE7FEE7FEE7FEE7FEE7FEE7FEE756
:1002800008480949094A0A4B704700006C0A0008EF
:1002900000000020DC0000208807002088ED00E03E
:1002A00089010008880100208807002088030020B9
:1002B000880300200FB41CB5074B06AA7B4469468F
:1002C0000090059800F0FBF80020694600F00AF95C
:1002D0001CBC5DF814FB0000250200002DE9F04174
:1002E0000E460446002020622046E168884730B36D
:1002F000252805D0D4E901219047206A401CF2E767
:10030000E168204600278847050018D0A5F1410084
:10031000192802D820354FF4006732462946204676
:100320002760FFF76BFF40B1012804D0F61D26F0CF
:1003300007060836D8E7361DD6E72846DAE7206AEA
:10034000BDE8F0812DE9F0410646002410687529CA
:10035000314616A510D0AFF30080002802DA4042E3
:1003600013A507E031688A0701D512A502E0490705
:1003700004D511A5012401E0AFF3008000210A2279
:1003800006F1240709E0B0FBF2FCB0FBF2F302FB3C
:100390001C00303078541846491C0028F3D12346FD
:1003A0002A463046BDE8F04100F02AB800000000BF
:1003B0002D0000002B0000002000000010B5431CA1
:1003C00002E010F8011B71B18107FAD14FF0013240
:1003D00002C88C1A8C4314EAC211F9D0C01A0A065A
:1003E00003D0C01E10BDC01A10BD0A0401D0801E6B
:1003F00010BD0902FCD0401E10BD70477047704709
:100400002DE9F0470D4699469246044600F124082E
:100410000168880604D5E06921F01001216000E040
:100420000120A84201DD471B00E00027A1697A19DD
:1004300002EB0900081AA0612078C00602D4204609
:10044000AFF30080002608E0D4E901211AF8060085
:100450009047206A401C761C20624E45F4DB2078D1
:10046000C0060AD52046AFF3008006E0D4E901219A
:1004700030209047206A401C2062381EA7F10107F7
:10048000F4DC07E0D4E9012118F805009047206A60
:10049000401C2062281EA5F10105F3DC2046AFF3C5
:1004A00000802078000602D50220BDE8F0870120F8
:1004B000FBE7000001694A1C02610878704700B53B
:1004C0008FB0CDE901310021059105497944CDE98D
:1004D000031011466846FFF701FF0FB000BD000092
:1004E000E5FFFFFF0A6802F8010B0A6070477546D6
:1004F00000F02CF8AE4605006946534620F0070090
:10050000854618B020B5FFF7BBFEBDE820404FF090
:1005100000064FF000074FF000084FF0000B21F0ED
:100520000701AC46ACE8C009ACE8C009ACE8C009BA
:10053000ACE8C0098D46704710B50446AFF30080A3
:100540002046BDE81040FFF76DBE00000048704730
:100550002401002001491820ABBEFEE7260002005E
:10056000704700002348C06C40F012002149C86465
:100570006FF03000204908600846006840F0100025
:1005800008601D480830006820F030001A49083122
:1005900008600846006840F030000860081F0068E6
:1005A00020F00400091F086013480C30006820F098
:1005B000300011490C3108606FF440300F49086079
:1005C0000846006840F4803008600846806820F4DF
:1005D000403088600846806840F4403088600846B3
:1005E000406820F4807048600846C06820F44030BD
:1005F000C860704700100240000400480010004826
:100600005E49096821F007015C4A116011460968DA
:1006100041F0020111605A49096841F48071584A59
:10062000116000BF5649096801F480610029F9D0C2
:1006300010205349496821F0F851514A5160114640
:10064000496841EA006151601146096821F08071F2
:10065000116000BF4A49096801F00071B1F1007FE3
:10066000F8D04749C96821F00301454AD1601146D5
:10067000C96841F00201D1601146C96821F4FE4108
:1006800041F4A051D1601146C96821F0700141F0D8
:100690001001D1601146C96821F0C061D1601146D6
:1006A000C96841F08071D1601146096841F08071DC
:1006B000116000BF3249096801F000710029F9D0CA
:1006C0002F49896821F003012D4A916011468968FC
:1006D00041F00301916000BF2949896801F00C01D4
:1006E0000C29F9D12649896821F0F001244A91604A
:1006F0001146896821F4E06191601146896821F40E
:10070000605191601146096821F08061116000BF5D
:100710001B49096801F08061B1F1806FF8D0184978
:10072000096921F4FE41164A11611146096941F433
:10073000C05111611146096941F40031116111463E
:10074000096941F4803111611146096841F0806105
:10075000116000BF0A49096801F080610029F9D0E1
:1007600007498831096821F44001054AC2F8881018
:100770001146096E41F400111166704700200240D5
:10078000001002401A48C06C40F008001849C864C4
:100790001848006820F47050164908600846006840
:1007A00040F42050086013482030006840F0EE60AC
:1007B0001049203108600F480830006840F470503C
:1007C0000C4908310860081D006820F47050091DAC
:1007D00008600846006840F4A05008600548001D05
:1007E000006820F060000349091D086070470000A0
:1007F00000100240000C004800B50D48806D40F428
:1008000000300B4988650A488830006820F00C00E9
:10081000C1F888000846D0F8880040F00400C1F80C
:100820008800FFF7AFFF034800F010F800BD00009C
:100830000010024000440040642242430723B2FB00
:10084000F3F100BF4A1E111EFCD17047016821F070
:1008500001010160016821F010210160016821F4AB
:1008600000410160416821F44051416042F28D0134
:10087000C160016841F00C0101601E4988421BD132
:10088000016841F020010160016821F04001016030
:10089000016821F010010160016821F08001016010
:1008A000016821F480710160016821F0400101605C
:1008B000016821F0010101600F49884209D1016AF4
:1008C00041F0400101620D49096841F0C0010B4A45
:1008D0001160016841F00101016000BFC16901F4CC
:1008E00000110029FAD000BFC16901F4800100297C
:1008F000FAD07047004C00400044004008380140E6
:10090000014600BFC86900F020000028FAD0888C9A
:10091000C0B27047F0B504460E46174600250CE0FD
:1009200000BFE06900F080000028FAD0705D2085EB
:100930004FF49670FFF780FF6D1CBD42F0D300BFEF
:10094000E06900F040000028FAD0E06920F04000A3
:10095000E061F0BD0EB5FFF753FEFFF703FEFFF7B2
:100960004BFF55E0002000900190029029482AA1F9
:1009700002682F48FFF79EFC2D48FFF71FFD064633
:1009800032462B492B48FFF7C5FF2B48FFF716FDD2
:100990000646324628492748FFF7BCFF2748FFF79D
:1009A0000DFD0646324625492248FFF7B3FF0025D4
:1009B0002048FFF7A5FF0446082C01D07F2C04D166
:1009C0000021681E0DF800101DE00D2C1BD018E052
:1009D0000DF805406D1C6846FFF7F0FC06463246F0
:1009E00069461448FFF796FF1348FFF7E7FC0646F1
:1009F000324611490F48FFF78DFF0E48FFF780FF81
:100A000004460D2CE4D10021681C0DF8001000BF35
:100A1000A8E70000D400002043757272656E742050
:100A20006C6F776572206C696D69743A2025690076
:100A3000FC00002000440040910000200100002044
:100A40004FF04070E1EE100A704700006C0A000899
:100A500000000020DC000000C4010008480B000872
:100A6000DC000020AC060000E001000800506C65CE
:100A700061736520656E74657220696E20612076F1
:100A8000616C756520666F7220746865206C6F7785
:100A90006572206C696D6974206F662074686520CA
:100AA00070756C73652074657374202835302074FC
:100AB0006F2039393530206D6963726F7365636FEC
:100AC0006E64732C20616E797468696E67206F752F
:100AD000747369646520746869732072616E6765F8
:100AE0002077696C6C2072756E2064656661756C28
:100AF000742076616C756573293A0D0A000D0A0041
:100B0000496E636F727265637420636F6D6D616EA1
:100B1000642C20706C656173652074727920616744
:100B200061696E20416C6C20636F6D6D616E6473E2
:100B30002061726520696E20636170732E0A0D005A
:080B4000B60300001A040000D6
:040000050800018965
:00000001FF
